:020000040800F2
:10000000201000201D1000084710000847100008AD
:1000100047100008471000084710000800000000C3
:100020000000000000000000000000004710000871
:1000300047100008000000004710000847100008A3
:100040004710000847100008471000084710000834
:100050004710000847100008471000084710000824
:100060004710000847100008471000084710000814
:100070004710000847100008471000084710000804
:1000800047100008471000084710000847100008F4
:1000900047100008471000084710000847100008E4
:1000A00047100008471000084710000847100008D4
:1000B00047100008471000084710000847100008C4
:1000C00047100008471000084710000847100008B4
:1000D00047100008471000084710000847100008A4
:1000E0004710000847100008471000084710000894
:1000F0004710000847100008471000084710000884
:100100004710000847100008471000084710000873
:100110004710000847100008471000084710000863
:100120004710000847100008471000084710000853
:100130004710000847100008471000084710000843
:100140004710000847100008471000084710000833
:100150004710000847100008471000084710000823
:100160004710000847100008471000084710000813
:100170004710000847100008471000084710000803
:1001800047100008471000084710000847100008F3
:080190004710000847100008A9
:100198000530024BA3FB0030C0087047CDCCCCCC57
:1001A800084B5A68084B03FB00F0064B5B689B1A28
:1001B800834205D2054B1B78002BF6D001207047EF
:1001C80000207047001000E0A08601001800002001
:1001D80070B504460846164621606260FFF7D8FFEE
:1001E8000546A0603046FFF7D3FFE06008B9012359
:1001F800E3600DB90123A36070BD00000E4AD2F878
:10020800443843F00103C2F844380C4B00221A600A
:100218005A609A609A6278229A6101221A624FF4AF
:1002280000425A641A6842F008021A604FF6FF72D8
:100238005A63DA62704700BF003002400000014094
:10024800104B1A6822F001021A6000225A62826872
:10025800C3681A44B2F5803F01D34FF6FF72094BC9
:10026800DA6282685A6301225A6100221A611A68A6
:1002780042F001021A60034B1B6813F0010FFAD118
:10028800704700BF000001400D4BD3F8082822F04A
:100298000F02C3F80828D3F8082C42F00102C3F86B
:1002A800082CD3F8002C42F00102C3F8002C4FF0C0
:1002B800E022D2F8003143F04003C2F80031704721
:1002C80000300140124B18600021124B19700123B5
:1002D8000375114B1A6822F001021A60596283688B
:1002E800C2681344B3F5803F01D34FF6FF730A4A3F
:1002F800D36283685363012353610023136103F1BD
:10030800804303F502334FF000529A61704700BFF3
:100318001C000020180000200000014010B5044611
:10032800FFF7D0FF41F28830FFF73AFF40B1094BA1
:100338001B6813F0010FFAD1074800F0A7FD10BDA4
:100348002075064B4FF400529A61054800F09EFD57
:10035800F5E700BF000001405C10000800080240FB
:100368007C10000810B5064C4FF40033A36132200E
:1003780000F000FD0223A361322000F0FBFC10BD59
:100388000000024010B590B0274800F07FFDFFF74D
:10039800E9FF642000F0EEFC002400E00134312C79
:1003A8003EDC3F2000F0ECFD142000F0E3FC64226A
:1003B8004021684600F014FE0428EFDD9DF8003067
:1003C800532BEBD1194800F061FD684600F05EFD43
:1003D800174800F05BFD174800F0DCFD142000F022
:1003E800C9FC64224021684600F0FAFD64224021DD
:1003F800684600F0F5FD104800F0CCFD142000F030
:10040800B9FC64224021684600F0EAFD64224021DC
:10041800684600F0E5FD094800F038FD10B010BD51
:10042800074800F033FDF9E7A0100008C4100008E1
:10043800D8100008DC100008EC100008F4100008C0
:100448000811000803783BB10A782AB1013001315C
:100458009342F7D0002070470A78934214BF0020D7
:10046800012070470B7833B110F8012B01319A4203
:10047800F8D00020704701207047034600E00133A0
:100488001A78202AFBD0002006E000EB800002EB5F
:100498004002A2F1300001331A78A2F13001C9B24A
:1004A8000929F2D9704700E0013003780BB1202BFD
:1004B800FAD10378202B01D10130FAE77047000008
:1004C800F8B506460D4600240CE0104800F0DEFCA6
:1004D800002333552046F8BD671CC0B2305500F0E4
:1004E800CBFC3C466B1EA342F2DD00F00BFD0D2851
:1004F800EBD00A28E9D0082801D07F28ECD1002CBD
:10050800F0DD013C024800F0C1FCEBE724110008D3
:10051800281100082DE9F04FC3B004468649FFF7BB
:1005280091FF20B985492046FFF78CFF48B38448DE
:1005380000F0ACFC834800F0A9FC834800F0A6FC5E
:10054800824800F0A3FC824800F0A0FC814800F03B
:100558009DFC814800F09AFC804800F097FC804898
:1005680000F094FC7F4800F091FC7F4800F08EFC7E
:100578007E4800F08BFC7E4800F088FC43B0BDE864
:10058800F08F7C492046FFF76DFFD0B1204606303A
:10059800FFF773FF0146784B1C465A681846FFF769
:1005A80017FE764800F072FC206800F07FFC744863
:1005B80000F06CFCA06800F079FC724800F066FC62
:1005C800DCE771492046FFF74DFFD0B120460630E1
:1005D800FFF753FF0246684B1C4619681846FFF799
:1005E800F7FD6A4800F052FC606800F05FFC644860
:1005F80000F04CFCE06800F059FC624800F046FC52
:10060800BCE763492046FFF71DFFB8B1614800F019
:100618003DFC594B1C46186800F048FC5E4800F049
:1006280035FC606800F042FC5C4800F02FFC204676
:10063800FFF706FE5A4800F029FC9FE75949204673
:10064800FFF700FF30B1584800F020FC4A48FFF798
:1006580065FE93E755492046FFF7F4FE40B154483C
:1006680000F014FCFFF77EFE524800F00FFC85E70F
:1006780051492046FFF7E6FE10B1FFF783FE7DE7FC
:100688004E492046FFF7EEFE90B1234605331C463F
:10069800184600F07FFC4A4800F07CFC494800F00E
:1006A800F5FB204600F0F2FB474800F0EFFB65E75A
:1006B80046492046FFF7C6FEB0B14FF4FA724FF430
:1006C800807102A800F08CFC002809DD404800F089
:1006D800DDFB02A800F0DAFB3B4800F0D7FB4DE752
:1006E8003C4800F0D3FB49E73B492046FFF7AAFE08
:1006F800002877D0394800F0C9FB1F4B1C46186802
:1007080000F0D4FB1E4800F0C1FBA06800F0CEFB4F
:100718001C4800F0BBFB324800F0B8FB606800F0F2
:10072800C5FB174800F0B2FBE06800F0BFFB1548B6
:1007380000F0ACFB22E700BF2C11000834110008C0
:10074800381100086011000888110008B01100086D
:10075800D8110008041200082812000850120008D6
:1007680078120008A0120008BC120008E81200085D
:100778000C1300087414000800000020341300084B
:100788004013000848130008541300085C130008BD
:1007980068130008701300088813000894130008F1
:1007A80098130008A8130008AC130008D413000815
:1007B800DC130008F41300081014000814140008CF
:1007C800241100081C140008D8100008241400087C
:1007D8002C14000834140008441400084C140008B1
:1007E8005814000880492046FFF73CFE002800F016
:1007F800DB80234606331C461846FFF73EFE0646B6
:100808002046FFF750FE0446FFF737FE00902046CB
:10081800FFF749FE0546FFF730FE044682462846A4
:10082800FFF741FE0546FFF728FE01902846FFF72F
:100838003AFE0546FFF721FE81462846FFF733FEBC
:10084800FFF71BFE07460CB90A239A460FB90A237D
:100858001F46664800F01AFB304600F027FB644844
:1008680000F014FB009800F021FB624800F00EFB3A
:10087800504600F01BFB604800F008FB019800F0B0
:1008880015FB5B4800F002FB484600F00FFB594897
:1008980000F0FCFA384600F009FB584800F0F6FA78
:1008A800002398469B461D46009A964262D8019BB3
:1008B8001C462EE0524800F0E9FA304600F0F6FAFD
:1008C800504800F0E3FA204600F0F0FA4E4800F0F5
:1008D800DDFA02A800F0DAFA4C4800F0D7FA9DF8E1
:1008E8000830302B37D15B4601339B46484800F02F
:1008F800CDFA304600F0DAFA424800F0C7FA20464E
:1009080000F0D4FA3D4800F0C1FA24E023463B4405
:100918001C464C4544D8224631463E48FFF758FC11
:10092800FFF720FD322000F025FA3A48FFF788FC4F
:10093800642000F01FFAC822802102A800F050FBB2
:100948002B4601331D460028B4D14346013398464F
:10095800314800F09BFA314B1B6813F0200FD5D0BB
:100968002E4B5B68DBB2712B01D0032BCED12C4808
:1009780000F08CFA2B4800F089FA284600F096FA25
:10098800294800F083FA584600F090FA274800F00A
:100998007DFA404600F08AFA184800F077FAEDE54B
:1009A800334653441E467FE721492046FFF74AFD58
:1009B80068B92378002B3FF4E1AD1E4800F066FAD1
:1009C800204600F063FA0D4800F060FAD6E51A48B0
:1009D80000F05CFA194800F059FA4FF4FA731D4612
:1009E80000231F461E46E9E0641400086C14000842
:1009F8007C1400088014000884140008D81000082B
:100A080098140008A0140008A4140008A8140008EA
:100A1800AC140008000000209014000800440040B6
:100A2800C0140008DC140008F4140008FC140008C2
:100A380004150008C4150008081500082C1500083E
:100A4800624BA3FB06235B09642202FB1363002BA2
:100A580000F088805E4B1B6813F0200F05D05C4BBC
:100A68005B68DBB2712B00F09380234632331C465F
:100A7800B4F5FA7F00F29F80224629465548FFF7D1
:100A8800A7FBFFF76FFC642000F074F93F2000F02B
:100A980077FA1E2000F06EF96422802102A800F087
:100AA8009FFA0328E1DD9DF80830532BDDD14A4831
:100AB80000F070FA142000F05DF96422802102A889
:100AC80000F08EFA6422802102A800F089FA4348D7
:100AD80000F060FA142000F04DF96422802102A889
:100AE80000F07EFA6422802102A800F079FA3C48DE
:100AF80000F050FA3748FFF7A3FB322000F03AF92C
:100B0800C822802102A800F06BFA334601331E4642
:100B1800002895DD9DF80830302B91D13B460133F4
:100B28001F46304800F0B2F9284600F0BFF92E48B9
:100B380000F0ACF9204600F0B9F92C4800F0A6F90D
:100B4800C822802102A800F04BFA00287FF778AF6E
:100B5800274800F09BF902A800F098F9234800F014
:100B680095F96DE7234800F091F9304600F09EF9B9
:100B7800214800F08BF9284600F098F91A4800F04F
:100B880085F9204600F092F9184800F07FF961E7EE
:100B98001A4800F07BF91A4800F078F9304600F05E
:100BA80085F9184800F072F9384600F07FF90F48C7
:100BB80000F06CF9E2E42B4632331D464CF2503318
:100BC8009D42E8D832231C4652E700BF1F85EB51EF
:100BD8000044004000000020DC100008EC10000871
:100BE8005815000860150008A0140008D81000085F
:100BF8007815000880150008841500088C15000871
:100C08009C150008B815000800B5C1B000F04AF8F6
:100C180000F090F800F0BAF84FF4E13000F0FAF87C
:100C28004FF4E13000F07AF9FFF7E8FAFFF72CFB10
:100C380062B6144800F02AF9134C204600F026F951
:100C4800124800F023F9124800F020F9114800F08A
:100C58001DF9204600F01AF90F4800F017F9642230
:100C68004FF47A710D48FFF7B3FA0D4800F00EF90A
:100C78004FF480716846FFF723FC6846FFF74AFC8B
:100C8800F3E700BFD4150008D815000804160008BB
:100C9800281600084C1600087416000800000020EA
:100CA80090160008214AD2F8003843F48033C2F87D
:100CB80000381E4BD3F8003813F4003FF9D01B4A14
:100CC800D2F8003C23F4437323F0030343F4407346
:100CD80043F00303C2F8003C154BC2F80438D2F8BD
:100CE800003843F08073C2F80038104BD3F800384E
:100CF80013F0007FF9D00D4AD2F8083823F47C436A
:100D080023F0F00343F48053C2F80838D2F80838C7
:100D180023F0030343F00203C2F80838034BD3F867
:100D2800083803F00C03082BF8D170470030024054
:100D3800193240044FF0E022D2F8FC3D43F08073B2
:100D4800C2F8FC3D034B00225A601A6842F00102C7
:100D58001A607047001000E0054B5A68642303FBD3
:100D680000F0034B5B689B1A8342FAD3704700BFBD
:100D7800001000E010B504E04FF47A70FFF7ECFFC4
:100D88002046441E0028F7D110BD00001F4BD3F8A1
:100D9800302842F00702C3F83028D3F8442842F438
:100DA8008042C3F84428A3F540531A6822F440321D
:100DB80042F400321A609A6842F440329A605A6AE1
:100DC80022F00F0242F001025A621A6822F003026E
:100DD8001A60DA6822F0030242F00202DA601A6846
:100DE80022F00C0242F004021A605A6842F0020231
:100DF8005A6002229A61064A136823F0406343F05E
:100E0800806313604FF400539361704700300240D1
:100E180000080240154AD2F8403843F40033C2F8BB
:100E28004038134B1A6822F0300242F020021A6050
:100E38001A6822F0C00242F080021A601A6A22F48C
:100E4800706242F4E0621A621A6A22F4704242F452
:100E5800E0421A62A3F5DE330022DA60054AB2FBEB
:100E6800F0F29A6042F20C02DA60704700300240F9
:100E78000000024080F0FA02034B1B6813F0800F59
:100E8800FAD0014B586070470044004010B5044642
:100E980003E014F8010BFFF7EFFF23782BB10A2BBF
:100EA800F7D10D20FFF7E8FFF3E710BD10B584B0C8
:100EB80010B10246002414E03020FFF7DDFF1CE0EB
:100EC8000F4BA3FB0213DB08194603EB8303A2EBCA
:100ED8004303303304F110026A4402F80C3C0A461A
:100EE8000134002AECD106E004F110036B4413F836
:100EF8000C0CFFF7C1FF013CF6D504B010BD00BFD4
:100F0800CDCCCCCC044B1B6813F0200FFAD0024B8D
:100F18005868C0B2704700BF00440040154AD2F874
:100F2800443843F01003C2F84438134B1A6822F4CB
:100F3800402242F400221A601A6822F4401242F455
:100F480000121A605A6A22F0F00242F070025A62E5
:100F58005A6A22F4706242F4E0625A62A3F570435E
:100F68000022DA60054AB2FBF0F29A6042F20C0203
:100F7800DA607047003002400000024000E1F505E9
:100F8800034B1B6813F0800FFAD0014B5860704771
:100F98000010014010B5044602E00134FFF7F0FFED
:100FA80020780028F9D110BD0A4B5A680A4B03FB78
:100FB80000F0084B5B689B1A834208D2074B1B68FA
:100FC80013F0200FF5D0054B5868C0B270474FF0AA
:100FD800FF307047001000E0A086010000100140BB
:100FE800F8B506460D46174600246B1EA3420DDDD4
:100FF8003846FFF7D9FF031E08DB0D2B04D00A2B58
:1010080002D033550134F0E7002CEEDD00233355D0
:101018002046F8BD0A480B490B4A884204DA52F8C0
:10102800043B40F8043BF8E7084809490023884294
:1010380002DA40F8043BFAE7FFF7E6FDFEE7FEE7D1
:1010480000000020180000209C160008180000204E
:10105800200000205B474C495443485D2054726986
:1010680067676572656420616E642066697265648D
:101078000A0000005B474C495443485D2054696DA1
:10108800656F757420E28094206E6F2074726967B2
:101098006765720A000000005B5441524745545D81
:1010A80020456E746572696E6720495350206D6FD4
:1010B800646520287265736574290A005B5441527F
:1010C8004745545D204953502073796E633A200098
:1010D8000A00000053796E6368726F6E697A6564FE
:1010E8000D0A000031323030300D0A005B54415295
:1010F8004745545D204953502072656164790A0060
:101108005B5441524745545D204953502073796ED2
:1011180063204641494C45440A0000000D0A00007E
:101128000820080068656C70000000003F0000009F
:101138000A3D3D3D2053544D33324634313120561B
:101148006F6C7461676520476C69746368657220A9
:101158003D3D3D0A00000000202064656C61792057
:101168003C6E733E202020202020E280942073656E
:10117800742064656C617920286E73290A00000068
:1011880020207769647468203C6E733E20202020FC
:101198002020E28094207365742077696474682045
:1011A800286E73290A0000002020676C6974636840
:1011B80020202020202020202020E2809420666902
:1011C800726520676C69746368206E6F770A000027
:1011D800202061726D202020202020202020202027
:1011E8002020E280942061726D2C20776169742040
:1011F800747269676765720A0000000020207265D2
:101208007365742020202020202020202020E280C8
:1012180094207265736574207461726765740A003E
:1012280020206973702020202020202020202020CA
:101238002020E280942074617267657420495350BD
:10124800206D6F64650A0000202073656E64203C81
:10125800746578743E2020202020E28094207365F5
:101268006E6420746F207461726765740A000000F0
:10127800202072656164202020202020202020204A
:101288002020E28094207265616420746172676531
:101298007420554152540A002020737765657020E8
:1012A80064302064312064732077302077312077D0
:1012B800730A000020206372702020202020202044
:1012C800202020202020E280942043525020627960
:1012D8007061737320617474656D70740A00000026
:1012E8002020737461747573202020202020202012
:1012F8002020E280942073686F7720706172616D9E
:10130800730A0000202068656C70202020202020AF
:10131800202020202020E280942074686973206DAA
:101328006573736167650A0A000000005B4F4B5DD7
:101338002064656C61793D00206E732028000000F0
:10134800207469636B73290A00000000776964746C
:10135800682000005B4F4B5D2077696474683D002E
:10136800676C6974636800005B474C495443485D87
:1013780020466972696E673A2064656C61793D0040
:101388006E732077696474683D0000006E730A000C
:101398005B474C495443485D20446F6E650A000022
:1013A80061726D005B41524D5D2057616974696ED1
:1013B8006720666F722074726967676572206F6E46
:1013C800205041302E2E2E0A0000000072657365F1
:1013D800740000005B5441524745545D20526573C8
:1013E800657474696E672E2E2E0A00005B54415294
:1013F8004745545D20526573657420636F6D706C4A
:101408006574650A000000006973700073656E6496
:10141800200000005B53454E545D200072656164F6
:10142800000000005B52585D200000005B52585DD0
:1014380020286E6F2064617461290A0073746174D6
:1014480075730000202064656C6179203A200000E3
:1014580020207769647468203A20000073776565F6
:10146800702000005B53574545505D2064656C61F2
:10147800792000002D0000002F000000202077694F
:10148800647468200000000020204D200000000047
:1014980020204E20643D000020773D00205B0000A6
:1014A8005D0A000020202A2A2A20484954202A2A96
:1014B8002A20643D000000000A5B53574545505DF3
:1014C8002041626F72746564206279207573657259
:1014D8000A0000005B53574545505D20446F6E6518
:1014E8002E20746F74616C3D0000000020686974E0
:1014F800733D0000206D757465733D006372700064
:101508005B4352505D205374617274696E67204367
:101518005250206279706173732073776565702EFD
:101528002E2E0A005B4352505D2054686973207761
:10153800696C6C2072657365742074617267657478
:10154800206D616E792074696D65732E0A00000044
:1015580052203020340D0A000A2121212043525004
:10156800204259504153532021212120643D00003D
:101578005B444154415D200020205B005D20643DB8
:10158800000000000A5B4352505D2041626F727494
:1015980065640A005B4352505D2046696E69736852
:1015A80065642E20617474656D7074733D0000006D
:1015B800207375636365737365733D005B455252B1
:1015C8005D20556E6B6E6F776E3A20000D0A0A002B
:1015D8003D3D3D3D3D3D3D3D3D3D3D3D3D3D3D3D33
:1015E8003D3D3D3D3D3D3D3D3D3D3D3D3D3D3D3D23
:1015F8003D3D3D3D3D3D3D3D0A000000202053540A
:101608004D33324634313120566F6C746167652032
:10161800476C6974636865722076312E300A000061
:1016280020205461726765743A204C504331373634
:101638003820284E585020436F727465782D4D33EA
:10164800290A00002020436C6F636B203A20313058
:1016580030204D487A20283130206E73207265730F
:101668006F6C7574696F6E290A0000005479706593
:10167800202768656C702720666F7220636F6D6D18
:10168800616E64732E0A0A00676C697463683E2091
:04169800000000004E
:10169C00E803000064000000640000000A00000081
:0816AC00010000000000000035
:040000050800019856
:00000001FF
