:1000000000800010C9000000C5000000C50000000D
:10001000C5000000C5000000C5000000C5000000CC
:10002000C5000000C5000000C5000000C5000000BC
:10003000C5000000C5000000C5000000C5000000AC
:10004000C5000000C5000000C5000000C50000009C
:10005000C5000000C5000000C5000000C50000008C
:10006000C5000000C5000000C5000000C50000007C
:10007000C5000000C5000000C5000000C50000006C
:10008000C5000000C5000000C5000000C50000005C
:10009000C5000000C5000000C5000000C50000004C
:1000A000C5000000C5000000C5000000C50000003C
:1000B000C5000000C5000000C5000000C50000002C
:0400C000C500000077
:1000C400FEE700BF124A134908B58A420DD212480E
:1000D40001390346891A21F003010431014453F81C
:1000E400040B8B4242F8040BF9D10C4A0C498A42A6
:1000F4000BD200200139891A21F00301043113467F
:100104000A4443F8040B9342FBD100F025F8FEE7C0
:100114000000001000000010F002000000000010B9
:100124000000001003786BB14FF00D0C094A0A2B44
:1001340009D010F8011B53699B06FCD511600378A4
:10014400002BF4D1704753699906FCD5C2F800C05E
:10015400EFE700BF00C00040F0B54FF01A0C4FF0BD
:10016400830E00250721102403203C262A4A8BB045
:10017400D2F8C430294F43F00803C2F8C430D2F88F
:10018400A83123F0C00343F04003C2F8A8313A6811
:10019400234B22F47F6242F4AA623A60C3F80CE073
:1001A400C3F800C05D601F4D9C62D86099602B6CE1
:1001B4001D4833432B64AE65FFF7B4FF1B48FFF7BC
:1001C400B1FF1B4B0DF1080C1C190FCB8CE80F0071
:1001D40094E80F000AAC04E90F00002404F00303C0
:1001E4000DEB8303AE659A689869EA65FFF79AFF99
:1001F4001048FFF797FF104B0193019B5A1E019281
:100204002BB100BF019B5A1E0192002BF9D101347E
:10021400B4F5805FE2D1E0E700C00F4000C00240C7
:1002240000C0004000C0092040020000600200003D
:10023400D002000098020000C0C62D004C5043318B
:10024400373638204C45442073657175656E636597
:100254007220737461727465640A00004453313D02
:1002640050322E3220204453323D50322E3320203F
:100274004453333D50322E3420204453353D5032C4
:100284002E35202028616374697665204C4F5729E8
:100294000A0A0000204F4E0A000000004453312097
:1002A4002850322E32290000445332202850322E56
:1002B40033290000445333202850322E34290000BF
:1002C400445335202850322E352900000400000004
:1002D400080000001000000020000000A002000040
:0C02E400AC020000B8020000C4020000E0
:04000003000000C930
:00000001FF
